{
  "contractName": "PaymentGateWay",
  "abi": [
    {
      "inputs": [
        {
          "internalType": "address",
          "name": "_wallet",
          "type": "address"
        },
        {
          "internalType": "address",
          "name": "_owner",
          "type": "address"
        }
      ],
      "stateMutability": "nonpayable",
      "type": "constructor"
    },
    {
      "anonymous": false,
      "inputs": [
        {
          "indexed": true,
          "internalType": "address",
          "name": "sender",
          "type": "address"
        },
        {
          "indexed": true,
          "internalType": "address",
          "name": "receiver",
          "type": "address"
        },
        {
          "indexed": false,
          "internalType": "uint256",
          "name": "value",
          "type": "uint256"
        }
      ],
      "name": "CoinTransferred",
      "type": "event"
    },
    {
      "anonymous": false,
      "inputs": [
        {
          "indexed": true,
          "internalType": "address",
          "name": "previousOwner",
          "type": "address"
        },
        {
          "indexed": true,
          "internalType": "address",
          "name": "newOwner",
          "type": "address"
        }
      ],
      "name": "OwnershipTransferred",
      "type": "event"
    },
    {
      "anonymous": false,
      "inputs": [
        {
          "indexed": true,
          "internalType": "address",
          "name": "sender",
          "type": "address"
        },
        {
          "indexed": true,
          "internalType": "address",
          "name": "receiver",
          "type": "address"
        },
        {
          "indexed": false,
          "internalType": "contract IERC20",
          "name": "currency",
          "type": "address"
        },
        {
          "indexed": false,
          "internalType": "uint256",
          "name": "value",
          "type": "uint256"
        }
      ],
      "name": "TokenTransferred",
      "type": "event"
    },
    {
      "anonymous": false,
      "inputs": [
        {
          "indexed": true,
          "internalType": "address",
          "name": "previousWallet",
          "type": "address"
        },
        {
          "indexed": true,
          "internalType": "address",
          "name": "newWallet",
          "type": "address"
        }
      ],
      "name": "WalletChanged",
      "type": "event"
    },
    {
      "inputs": [],
      "name": "owner",
      "outputs": [
        {
          "internalType": "address",
          "name": "",
          "type": "address"
        }
      ],
      "stateMutability": "view",
      "type": "function",
      "constant": true
    },
    {
      "inputs": [],
      "name": "wallet",
      "outputs": [
        {
          "internalType": "address payable",
          "name": "",
          "type": "address"
        }
      ],
      "stateMutability": "view",
      "type": "function",
      "constant": true
    },
    {
      "inputs": [
        {
          "internalType": "address",
          "name": "_newOwner",
          "type": "address"
        }
      ],
      "name": "transferOwnership",
      "outputs": [],
      "stateMutability": "nonpayable",
      "type": "function"
    },
    {
      "inputs": [
        {
          "internalType": "address",
          "name": "_newWallet",
          "type": "address"
        }
      ],
      "name": "changeWallet",
      "outputs": [],
      "stateMutability": "nonpayable",
      "type": "function"
    },
    {
      "inputs": [
        {
          "internalType": "address",
          "name": "_recipient",
          "type": "address"
        },
        {
          "internalType": "uint256",
          "name": "_value",
          "type": "uint256"
        },
        {
          "internalType": "contract IERC20",
          "name": "_currency",
          "type": "address"
        }
      ],
      "name": "transferTo",
      "outputs": [],
      "stateMutability": "nonpayable",
      "type": "function"
    },
    {
      "inputs": [
        {
          "internalType": "uint256",
          "name": "_value",
          "type": "uint256"
        },
        {
          "internalType": "contract IERC20",
          "name": "_currency",
          "type": "address"
        }
      ],
      "name": "withdraw",
      "outputs": [],
      "stateMutability": "nonpayable",
      "type": "function"
    },
    {
      "inputs": [
        {
          "internalType": "uint256",
          "name": "_value",
          "type": "uint256"
        },
        {
          "internalType": "contract IERC20",
          "name": "_currency",
          "type": "address"
        }
      ],
      "name": "deposit",
      "outputs": [],
      "stateMutability": "payable",
      "type": "function",
      "payable": true
    },
    {
      "inputs": [
        {
          "internalType": "uint256",
          "name": "_value",
          "type": "uint256"
        },
        {
          "internalType": "contract IERC20",
          "name": "_currency",
          "type": "address"
        }
      ],
      "name": "buy",
      "outputs": [],
      "stateMutability": "payable",
      "type": "function",
      "payable": true
    },
    {
      "inputs": [
        {
          "internalType": "contract IERC20",
          "name": "_currency",
          "type": "address"
        }
      ],
      "name": "getBalance",
      "outputs": [
        {
          "internalType": "uint256",
          "name": "balance",
          "type": "uint256"
        }
      ],
      "stateMutability": "view",
      "type": "function",
      "constant": true
    }
  ],
  "bytecode": "0x60806040523480156200001157600080fd5b506040516200251a3803806200251a8339818101604052810190620000379190620001a6565b62000048826200016860201b60201c565b156200008b576040517f08c379a0000000000000000000000000000000000000000000000000000000008152600401620000829062000229565b60405180910390fd5b6200009c816200016860201b60201c565b15620000df576040517f08c379a0000000000000000000000000000000000000000000000000000000008152600401620000d69062000229565b60405180910390fd5b806000806101000a81548173ffffffffffffffffffffffffffffffffffffffff021916908373ffffffffffffffffffffffffffffffffffffffff16021790555081600160006101000a81548173ffffffffffffffffffffffffffffffffffffffff021916908373ffffffffffffffffffffffffffffffffffffffff1602179055505050620002aa565b600080823b90506000811115620001845760019150506200018a565b60009150505b919050565b600081519050620001a08162000290565b92915050565b60008060408385031215620001ba57600080fd5b6000620001ca858286016200018f565b9250506020620001dd858286016200018f565b9150509250929050565b6000620001f6601e836200024b565b91507f506c656173652075736520616e2045787465726e616c206163636f756e7400006000830152602082019050919050565b600060208201905081810360008301526200024481620001e7565b9050919050565b600082825260208201905092915050565b6000620002698262000270565b9050919050565b600073ffffffffffffffffffffffffffffffffffffffff82169050919050565b6200029b816200025c565b8114620002a757600080fd5b50565b61226080620002ba6000396000f3fe6080604052600436106100855760003560e01c806386c69af81161005957806386c69af8146101165780638da5cb5b1461013f57806398b9a2dc1461016a578063f2fde38b14610193578063f8b2cb4f146101bc57610085565b8062f714ce1461008a578063521eb273146100b35780636e553f65146100de5780637deb6025146100fa575b600080fd5b34801561009657600080fd5b506100b160048036038101906100ac9190611a7b565b6101f9565b005b3480156100bf57600080fd5b506100c861068a565b6040516100d59190611e8f565b60405180910390f35b6100f860048036038101906100f39190611a7b565b6106b0565b005b610114600480360381019061010f9190611a7b565b610979565b005b34801561012257600080fd5b5061013d600480360381019061013891906119b1565b610db4565b005b34801561014b57600080fd5b5061015461124b565b6040516101619190611e74565b60405180910390f35b34801561017657600080fd5b50610191600480360381019061018c9190611988565b61126f565b005b34801561019f57600080fd5b506101ba60048036038101906101b59190611988565b6114d8565b005b3480156101c857600080fd5b506101e360048036038101906101de9190611a29565b61173c565b6040516101f091906120dc565b60405180910390f35b60008054906101000a900473ffffffffffffffffffffffffffffffffffffffff1673ffffffffffffffffffffffffffffffffffffffff166102386118ea565b73ffffffffffffffffffffffffffffffffffffffff161461028e576040517f08c379a000000000000000000000000000000000000000000000000000000000815260040161028590611ffc565b60405180910390fd5b600073ffffffffffffffffffffffffffffffffffffffff168173ffffffffffffffffffffffffffffffffffffffff1614156103fb5747821115610306576040517f08c379a00000000000000000000000000000000000000000000000000000000081526004016102fd90611f9c565b60405180910390fd5b600160009054906101000a900473ffffffffffffffffffffffffffffffffffffffff1673ffffffffffffffffffffffffffffffffffffffff166108fc839081150290604051600060405180830381858888f1935050505015801561036e573d6000803e3d6000fd5b50600160009054906101000a900473ffffffffffffffffffffffffffffffffffffffff1673ffffffffffffffffffffffffffffffffffffffff163073ffffffffffffffffffffffffffffffffffffffff167f9a8cb9c9a56a2f68f91554d7bdb72be0d5f88884d0084b6772230095e695fe42846040516103ee91906120dc565b60405180910390a3610686565b610404816118f2565b610443576040517f08c379a000000000000000000000000000000000000000000000000000000000815260040161043a9061203c565b60405180910390fd5b8073ffffffffffffffffffffffffffffffffffffffff166370a08231306040518263ffffffff1660e01b815260040161047c9190611e74565b60206040518083038186803b15801561049457600080fd5b505afa1580156104a8573d6000803e3d6000fd5b505050506040513d601f19601f820116820180604052508101906104cc9190611a52565b82111561050e576040517f08c379a0000000000000000000000000000000000000000000000000000000008152600401610505906120bc565b60405180910390fd5b8073ffffffffffffffffffffffffffffffffffffffff1663a9059cbb600160009054906101000a900473ffffffffffffffffffffffffffffffffffffffff16846040518363ffffffff1660e01b815260040161056b929190611eaa565b602060405180830381600087803b15801561058557600080fd5b505af1158015610599573d6000803e3d6000fd5b505050506040513d601f19601f820116820180604052508101906105bd9190611a00565b6105fc576040517f08c379a00000000000000000000000000000000000000000000000000000000081526004016105f390611f7c565b60405180910390fd5b600160009054906101000a900473ffffffffffffffffffffffffffffffffffffffff1673ffffffffffffffffffffffffffffffffffffffff163073ffffffffffffffffffffffffffffffffffffffff167f9af266b6ca4909f988dc948fb50ad15153abbe525351881bad4fa858be96515c838560405161067d929190611f33565b60405180910390a35b5050565b600160009054906101000a900473ffffffffffffffffffffffffffffffffffffffff1681565b600073ffffffffffffffffffffffffffffffffffffffff168173ffffffffffffffffffffffffffffffffffffffff16141561079f57816106ee611917565b1461072e576040517f08c379a00000000000000000000000000000000000000000000000000000000081526004016107259061209c565b60405180910390fd5b3073ffffffffffffffffffffffffffffffffffffffff1661074d6118ea565b73ffffffffffffffffffffffffffffffffffffffff167f9a8cb9c9a56a2f68f91554d7bdb72be0d5f88884d0084b6772230095e695fe428460405161079291906120dc565b60405180910390a3610975565b6107a8816118f2565b6107e7576040517f08c379a00000000000000000000000000000000000000000000000000000000081526004016107de9061203c565b60405180910390fd5b60006107f1611917565b14610831576040517f08c379a000000000000000000000000000000000000000000000000000000000815260040161082890611f5c565b60405180910390fd5b8073ffffffffffffffffffffffffffffffffffffffff166323b872dd6108556118ea565b30856040518463ffffffff1660e01b815260040161087593929190611ed3565b602060405180830381600087803b15801561088f57600080fd5b505af11580156108a3573d6000803e3d6000fd5b505050506040513d601f19601f820116820180604052508101906108c79190611a00565b610906576040517f08c379a00000000000000000000000000000000000000000000000000000000081526004016108fd9061201c565b60405180910390fd5b3073ffffffffffffffffffffffffffffffffffffffff166109256118ea565b73ffffffffffffffffffffffffffffffffffffffff167f9af266b6ca4909f988dc948fb50ad15153abbe525351881bad4fa858be96515c838560405161096c929190611f33565b60405180910390a35b5050565b600073ffffffffffffffffffffffffffffffffffffffff168173ffffffffffffffffffffffffffffffffffffffff161415610ad157816109b7611917565b146109f7576040517f08c379a00000000000000000000000000000000000000000000000000000000081526004016109ee9061209c565b60405180910390fd5b600160009054906101000a900473ffffffffffffffffffffffffffffffffffffffff1673ffffffffffffffffffffffffffffffffffffffff166108fc839081150290604051600060405180830381858888f19350505050158015610a5f573d6000803e3d6000fd5b503073ffffffffffffffffffffffffffffffffffffffff16610a7f6118ea565b73ffffffffffffffffffffffffffffffffffffffff167f9a8cb9c9a56a2f68f91554d7bdb72be0d5f88884d0084b6772230095e695fe4284604051610ac491906120dc565b60405180910390a3610db0565b610ada816118f2565b610b19576040517f08c379a0000000000000000000000000000000000000000000000000000000008152600401610b109061203c565b60405180910390fd5b6000610b23611917565b14610b63576040517f08c379a0000000000000000000000000000000000000000000000000000000008152600401610b5a90611f5c565b60405180910390fd5b8073ffffffffffffffffffffffffffffffffffffffff166323b872dd610b876118ea565b30856040518463ffffffff1660e01b8152600401610ba793929190611ed3565b602060405180830381600087803b158015610bc157600080fd5b505af1158015610bd5573d6000803e3d6000fd5b505050506040513d601f19601f82011682018060405250810190610bf99190611a00565b610c38576040517f08c379a0000000000000000000000000000000000000000000000000000000008152600401610c2f9061201c565b60405180910390fd5b8073ffffffffffffffffffffffffffffffffffffffff1663a9059cbb600160009054906101000a900473ffffffffffffffffffffffffffffffffffffffff16846040518363ffffffff1660e01b8152600401610c95929190611eaa565b602060405180830381600087803b158015610caf57600080fd5b505af1158015610cc3573d6000803e3d6000fd5b505050506040513d601f19601f82011682018060405250810190610ce79190611a00565b610d26576040517f08c379a0000000000000000000000000000000000000000000000000000000008152600401610d1d90611f7c565b60405180910390fd5b600160009054906101000a900473ffffffffffffffffffffffffffffffffffffffff1673ffffffffffffffffffffffffffffffffffffffff163073ffffffffffffffffffffffffffffffffffffffff167f9af266b6ca4909f988dc948fb50ad15153abbe525351881bad4fa858be96515c8385604051610da7929190611f33565b60405180910390a35b5050565b60008054906101000a900473ffffffffffffffffffffffffffffffffffffffff1673ffffffffffffffffffffffffffffffffffffffff16610df36118ea565b73ffffffffffffffffffffffffffffffffffffffff1614610e49576040517f08c379a0000000000000000000000000000000000000000000000000000000008152600401610e4090611ffc565b60405180910390fd5b610e52836118f2565b15610e92576040517f08c379a0000000000000000000000000000000000000000000000000000000008152600401610e899061205c565b60405180910390fd5b600073ffffffffffffffffffffffffffffffffffffffff168173ffffffffffffffffffffffffffffffffffffffff161415610fdd5747821115610f0a576040517f08c379a0000000000000000000000000000000000000000000000000000000008152600401610f0190611f9c565b60405180910390fd5b8273ffffffffffffffffffffffffffffffffffffffff166108fc839081150290604051600060405180830381858888f19350505050158015610f50573d6000803e3d6000fd5b508273ffffffffffffffffffffffffffffffffffffffff16600160009054906101000a900473ffffffffffffffffffffffffffffffffffffffff1673ffffffffffffffffffffffffffffffffffffffff167f9a8cb9c9a56a2f68f91554d7bdb72be0d5f88884d0084b6772230095e695fe4284604051610fd091906120dc565b60405180910390a3611246565b610fe6816118f2565b611025576040517f08c379a000000000000000000000000000000000000000000000000000000000815260040161101c9061203c565b60405180910390fd5b8073ffffffffffffffffffffffffffffffffffffffff166370a08231306040518263ffffffff1660e01b815260040161105e9190611e74565b60206040518083038186803b15801561107657600080fd5b505afa15801561108a573d6000803e3d6000fd5b505050506040513d601f19601f820116820180604052508101906110ae9190611a52565b8211156110f0576040517f08c379a00000000000000000000000000000000000000000000000000000000081526004016110e7906120bc565b60405180910390fd5b8073ffffffffffffffffffffffffffffffffffffffff1663a9059cbb84846040518363ffffffff1660e01b815260040161112b929190611f0a565b602060405180830381600087803b15801561114557600080fd5b505af1158015611159573d6000803e3d6000fd5b505050506040513d601f19601f8201168201806040525081019061117d9190611a00565b6111bc576040517f08c379a00000000000000000000000000000000000000000000000000000000081526004016111b390611f7c565b60405180910390fd5b600160009054906101000a900473ffffffffffffffffffffffffffffffffffffffff1673ffffffffffffffffffffffffffffffffffffffff163073ffffffffffffffffffffffffffffffffffffffff167f9af266b6ca4909f988dc948fb50ad15153abbe525351881bad4fa858be96515c838560405161123d929190611f33565b60405180910390a35b505050565b60008054906101000a900473ffffffffffffffffffffffffffffffffffffffff1681565b60008054906101000a900473ffffffffffffffffffffffffffffffffffffffff1673ffffffffffffffffffffffffffffffffffffffff166112ae6118ea565b73ffffffffffffffffffffffffffffffffffffffff1614611304576040517f08c379a00000000000000000000000000000000000000000000000000000000081526004016112fb90611ffc565b60405180910390fd5b600073ffffffffffffffffffffffffffffffffffffffff168173ffffffffffffffffffffffffffffffffffffffff16141561133e57600080fd5b8073ffffffffffffffffffffffffffffffffffffffff16600160009054906101000a900473ffffffffffffffffffffffffffffffffffffffff1673ffffffffffffffffffffffffffffffffffffffff1614156113cf576040517f08c379a00000000000000000000000000000000000000000000000000000000081526004016113c690611fbc565b60405180910390fd5b6113d8816118f2565b15611418576040517f08c379a000000000000000000000000000000000000000000000000000000000815260040161140f90611fdc565b60405180910390fd5b8073ffffffffffffffffffffffffffffffffffffffff16600160009054906101000a900473ffffffffffffffffffffffffffffffffffffffff1673ffffffffffffffffffffffffffffffffffffffff167f64cbbd34f3faebfd04eff088ae5832f6d254dbb81820b0055e9d85c534aa700d60405160405180910390a380600160006101000a81548173ffffffffffffffffffffffffffffffffffffffff021916908373ffffffffffffffffffffffffffffffffffffffff16021790555050565b60008054906101000a900473ffffffffffffffffffffffffffffffffffffffff1673ffffffffffffffffffffffffffffffffffffffff166115176118ea565b73ffffffffffffffffffffffffffffffffffffffff161461156d576040517f08c379a000000000000000000000000000000000000000000000000000000000815260040161156490611ffc565b60405180910390fd5b600073ffffffffffffffffffffffffffffffffffffffff168173ffffffffffffffffffffffffffffffffffffffff1614156115a757600080fd5b8073ffffffffffffffffffffffffffffffffffffffff1660008054906101000a900473ffffffffffffffffffffffffffffffffffffffff1673ffffffffffffffffffffffffffffffffffffffff161415611636576040517f08c379a000000000000000000000000000000000000000000000000000000000815260040161162d9061207c565b60405180910390fd5b61163f816118f2565b1561167f576040517f08c379a000000000000000000000000000000000000000000000000000000000815260040161167690611fdc565b60405180910390fd5b8073ffffffffffffffffffffffffffffffffffffffff1660008054906101000a900473ffffffffffffffffffffffffffffffffffffffff1673ffffffffffffffffffffffffffffffffffffffff167f8be0079c531659141344cd1fd0a4f28419497f9722a3daafe3b4186f6b6457e060405160405180910390a3806000806101000a81548173ffffffffffffffffffffffffffffffffffffffff021916908373ffffffffffffffffffffffffffffffffffffffff16021790555050565b60008060009054906101000a900473ffffffffffffffffffffffffffffffffffffffff1673ffffffffffffffffffffffffffffffffffffffff1661177e6118ea565b73ffffffffffffffffffffffffffffffffffffffff16146117d4576040517f08c379a00000000000000000000000000000000000000000000000000000000081526004016117cb90611ffc565b60405180910390fd5b600073ffffffffffffffffffffffffffffffffffffffff168273ffffffffffffffffffffffffffffffffffffffff161415611811574790506118e5565b61181a826118f2565b611859576040517f08c379a00000000000000000000000000000000000000000000000000000000081526004016118509061203c565b60405180910390fd5b8173ffffffffffffffffffffffffffffffffffffffff166370a08231306040518263ffffffff1660e01b81526004016118929190611e74565b60206040518083038186803b1580156118aa57600080fd5b505afa1580156118be573d6000803e3d6000fd5b505050506040513d601f19601f820116820180604052508101906118e29190611a52565b90505b919050565b600033905090565b600080823b9050600081111561190c576001915050611912565b60009150505b919050565b600034905090565b60008135905061192e816121ce565b92915050565b600081519050611943816121e5565b92915050565b600081359050611958816121fc565b92915050565b60008135905061196d81612213565b92915050565b60008151905061198281612213565b92915050565b60006020828403121561199a57600080fd5b60006119a88482850161191f565b91505092915050565b6000806000606084860312156119c657600080fd5b60006119d48682870161191f565b93505060206119e58682870161195e565b92505060406119f686828701611949565b9150509250925092565b600060208284031215611a1257600080fd5b6000611a2084828501611934565b91505092915050565b600060208284031215611a3b57600080fd5b6000611a4984828501611949565b91505092915050565b600060208284031215611a6457600080fd5b6000611a7284828501611973565b91505092915050565b60008060408385031215611a8e57600080fd5b6000611a9c8582860161195e565b9250506020611aad85828601611949565b9150509250929050565b611ac081612174565b82525050565b611acf8161211a565b82525050565b611ade81612108565b82525050565b611aed81612186565b82525050565b6000611b006012836120f7565b91507f436f696e20776f756c64206265206c6f737400000000000000000000000000006000830152602082019050919050565b6000611b40601c836120f7565b91507f746f6b656e207472616e73666572206661696c6564206661696c6564000000006000830152602082019050919050565b6000611b806012836120f7565b91507f6e6f7420656e6f7567682062616c616e636500000000000000000000000000006000830152602082019050919050565b6000611bc0600e836120f7565b91507f557365206e65772077616c6c65740000000000000000000000000000000000006000830152602082019050919050565b6000611c006032836120f7565b91507f506c656173652075736520616e2045787465726e616c206163636f756e742e2060008301527f4e6f7420536d617274436f6e74726163742100000000000000000000000000006020830152604082019050919050565b6000611c666011836120f7565b91507f596f7520617265206e6f74204f776e65720000000000000000000000000000006000830152602082019050919050565b6000611ca66013836120f7565b91507f7472616e7366657246726f6d206661696c6564000000000000000000000000006000830152602082019050919050565b6000611ce66018836120f7565b91507f496e76616c696420436f6e7472616374206164647265737300000000000000006000830152602082019050919050565b6000611d26604d836120f7565b91507f506c656173652075736520616e2045787465726e616c206163636f756e742e2060008301527f596f752063616e6e6f742073656e6420796f757220636f696e7320746f206f7460208301527f68657220636f6e747261637473000000000000000000000000000000000000006040830152606082019050919050565b6000611db2600f836120f7565b91507f557365206e6577206164647265737300000000000000000000000000000000006000830152602082019050919050565b6000611df2601e836120f7565b91507f436f696e2076616c756520646f65736e2774206d61746368206f6666657200006000830152602082019050919050565b6000611e326018836120f7565b91507f6e6f7420656e6f75676820546f6b656e2062616c616e636500000000000000006000830152602082019050919050565b611e6e8161216a565b82525050565b6000602082019050611e896000830184611ad5565b92915050565b6000602082019050611ea46000830184611ac6565b92915050565b6000604082019050611ebf6000830185611ab7565b611ecc6020830184611e65565b9392505050565b6000606082019050611ee86000830186611ad5565b611ef56020830185611ad5565b611f026040830184611e65565b949350505050565b6000604082019050611f1f6000830185611ad5565b611f2c6020830184611e65565b9392505050565b6000604082019050611f486000830185611ae4565b611f556020830184611e65565b9392505050565b60006020820190508181036000830152611f7581611af3565b9050919050565b60006020820190508181036000830152611f9581611b33565b9050919050565b60006020820190508181036000830152611fb581611b73565b9050919050565b60006020820190508181036000830152611fd581611bb3565b9050919050565b60006020820190508181036000830152611ff581611bf3565b9050919050565b6000602082019050818103600083015261201581611c59565b9050919050565b6000602082019050818103600083015261203581611c99565b9050919050565b6000602082019050818103600083015261205581611cd9565b9050919050565b6000602082019050818103600083015261207581611d19565b9050919050565b6000602082019050818103600083015261209581611da5565b9050919050565b600060208201905081810360008301526120b581611de5565b9050919050565b600060208201905081810360008301526120d581611e25565b9050919050565b60006020820190506120f16000830184611e65565b92915050565b600082825260208201905092915050565b60006121138261214a565b9050919050565b60006121258261214a565b9050919050565b60008115159050919050565b600061214382612108565b9050919050565b600073ffffffffffffffffffffffffffffffffffffffff82169050919050565b6000819050919050565b600061217f826121aa565b9050919050565b600061219182612198565b9050919050565b60006121a38261214a565b9050919050565b60006121b5826121bc565b9050919050565b60006121c78261214a565b9050919050565b6121d781612108565b81146121e257600080fd5b50565b6121ee8161212c565b81146121f957600080fd5b50565b61220581612138565b811461221057600080fd5b50565b61221c8161216a565b811461222757600080fd5b5056fea2646970667358221220305456402a0d2a13d1d5e9a1486d437d9fe8259bc384468461f92e0e09f51b9c64736f6c63430008000033",
  "immutableReferences": {},
  "source": "// SPDX-License-Identifier: MIT\r\n\r\npragma solidity >=0.6.0 <=0.8.0;\r\n\r\nimport \"./IERC20.sol\";\r\n\r\ncontract PaymentGateWay{\r\n    \r\n    address public owner;\r\n    address payable public wallet;\r\n    \r\n    // address ether :0x0000000000000000000000000000000000000000\r\n\r\n    event OwnershipTransferred(address indexed previousOwner, address indexed newOwner);    // emits when ownership of gateway is changed\r\n    event WalletChanged(address indexed previousWallet, address indexed newWallet);         // emits when wallet of gateway is changed\r\n    event CoinTransferred(address indexed sender, address indexed receiver, uint value);    // emits when coins(not tokens) are transferred\r\n    event TokenTransferred(address indexed sender, address indexed receiver, IERC20 currency, uint value); // emits when tokens are transferred\r\n    \r\n    function _msgSender() internal view returns (address) {                 // address of msg.sender\r\n        return msg.sender;\r\n    }\r\n\r\n    function _msgValue() internal view returns (uint) {                     // amount of msg.value\r\n        return msg.value;\r\n    }\r\n\r\n    constructor(address _wallet, address _owner) {\r\n      require(!checkForSmartContract(_wallet),\"Please use an External account\");\r\n      require(!checkForSmartContract(_owner),\"Please use an External account\");\r\n      owner = _owner;                                                                          // set the owner of gateway\r\n      wallet = payable(_wallet);                                                                        // set the wallet of gateway\r\n    }\r\n\r\n    modifier onlyOwner() {\r\n      require(_msgSender() == owner, \"You are not Owner\");\r\n      _;\r\n    }\r\n    \r\n    function checkForSmartContract(address _address) internal view returns(bool) {             // checks an address / contract or EOA\r\n        uint size;\r\n        assembly{\r\n            size:= extcodesize(_address)\r\n        }\r\n        if (size > 0){\r\n            // this is a smart contract\r\n            return true;\r\n        }\r\n        else return false;\r\n    }\r\n\r\n    function transferOwnership(address _newOwner) public onlyOwner {                           // transferring ownership of gateway\r\n      require(_newOwner != address(0));\r\n      require(owner != _newOwner,\"Use new address\");\r\n      require(!checkForSmartContract(_newOwner),\"Please use an External account. Not SmartContract!\");\r\n      emit OwnershipTransferred(owner, _newOwner);\r\n      owner = _newOwner;\r\n    }\r\n    \r\n    function changeWallet(address _newWallet) public onlyOwner {                       // change the wallet of gateway\r\n        require(_newWallet != address(0));\r\n        require(wallet != _newWallet,\"Use new wallet\");\r\n        require(!checkForSmartContract(_newWallet),\"Please use an External account. Not SmartContract!\");\r\n        emit WalletChanged(wallet,_newWallet);\r\n        wallet = payable(_newWallet);\r\n    }\r\n    \r\n    function transferTo(address _recipient, uint256 _value, IERC20 _currency) public onlyOwner {      // trasnfer currencies from gateway to any EAO\r\n        require(!checkForSmartContract(_recipient),\"Please use an External account. You cannot send your coins to other contracts\");\r\n        if (address(_currency) == address(0x0)) { \r\n            require(_value <= address(this).balance, \"not enough balance\");\r\n            payable(_recipient).transfer(_value);\r\n            emit CoinTransferred(wallet, _recipient, _value);\r\n        } \r\n        else { // use Token\r\n            require(checkForSmartContract(address(_currency)), \"Invalid Contract address\");\r\n            require(_value <= _currency.balanceOf(address(this)), \"not enough Token balance\");\r\n            require(_currency.transfer(_recipient, _value),  \"token transfer failed failed\");\r\n            emit TokenTransferred(address(this), wallet , _currency, _value);                       // event for transfer to wallet\r\n        }\r\n    }\r\n    \r\n    function withdraw(uint256 _value, IERC20 _currency) public onlyOwner {                  // trasnfer currencies from gateway to wallet\r\n        if (address(_currency) == address(0x0)) { \r\n            require(_value <= address(this).balance, \"not enough balance\");\r\n            payable(wallet).transfer(_value);\r\n            emit CoinTransferred(address(this), wallet, _value);\r\n        } \r\n        else { // use Token\r\n            require(checkForSmartContract(address(_currency)), \"Invalid Contract address\");\r\n            require(_value <= _currency.balanceOf(address(this)), \"not enough Token balance\");\r\n            require(_currency.transfer(wallet, _value),  \"token transfer failed failed\");\r\n            emit TokenTransferred(address(this), wallet , _currency, _value);                        // event for transfer to wallet\r\n        }\r\n    }\r\n    \r\n    function deposit(uint _value, IERC20 _currency) public payable {                // costumers call this and transfer currency to gateway\r\n        if (address(_currency) == address(0x0)) { \r\n            require(_msgValue() == _value, \"Coin value doesn't match offer\");\r\n            emit CoinTransferred(_msgSender(), address(this), _value);\r\n        } \r\n        else { // use Token\r\n            require(checkForSmartContract(address(_currency)), \"Invalid Contract address\");\r\n            require(_msgValue() == 0, \"Coin would be lost\");\r\n            require(_currency.transferFrom(_msgSender(), address(this), _value),  \"transferFrom failed\");\r\n            emit TokenTransferred(_msgSender(), address(this), _currency, _value); // event for transfer from to contract\r\n        }\r\n    }\r\n     \r\n    function buy(uint _value, IERC20 _currency) public payable {               // direct transfer from costumers to wallet\r\n        if (address(_currency) == address(0x0)) { \r\n            require(_msgValue() == _value, \"Coin value doesn't match offer\");\r\n            payable(wallet).transfer(_value);\r\n            emit CoinTransferred(_msgSender(), address(this), _value);\r\n        } \r\n        else { // use Token\r\n            require(checkForSmartContract(address(_currency)), \"Invalid Contract address\");\r\n            require(_msgValue() == 0, \"Coin would be lost\");\r\n            require(_currency.transferFrom(_msgSender(), address(this), _value),  \"transferFrom failed\");\r\n            require(_currency.transfer(wallet, _value),  \"token transfer failed failed\");\r\n            emit TokenTransferred(address(this), wallet , _currency, _value); // event for transfer to wallet \r\n        }\r\n    }\r\n    \r\n    function getBalance(IERC20 _currency) public view onlyOwner returns (uint balance) {       // balance of available currencies in gateway\r\n        if (address(_currency) == address(0x0)) { \r\n            return address(this).balance;\r\n        }\r\n        else {\r\n            require(checkForSmartContract(address(_currency)), \"Invalid Contract address\");\r\n            return _currency.balanceOf(address(this));\r\n        }\r\n    }\r\n}\r\n\r\ncontract CreateGateway{\r\n    \r\n    address private owner;\r\n    \r\n    modifier onlyOwner() {\r\n      require(_msgSender() == owner, \"You are not Owner\");\r\n      _;\r\n    }\r\n    \r\n    function _msgSender() internal view returns (address) {\r\n        return msg.sender;\r\n    }\r\n    \r\n    event GateWayCreated(address gateWayAddress);               // emits when gateway is created\r\n    \r\n    constructor() {\r\n      owner = _msgSender();\r\n    }\r\n    \r\n    function createPaymentGate(address _wallet, address _owner) external onlyOwner {      // create new gateway\r\n        require(!checkForSmartContract(_wallet),\"Please use an External account\");\r\n        require(!checkForSmartContract(_owner),\"Please use an External account\");\r\n        PaymentGateWay paymentGateWay = new PaymentGateWay(payable(_wallet), _owner);\r\n        emit GateWayCreated(address(paymentGateWay));\r\n    }\r\n    \r\n    function checkForSmartContract(address _address) internal view returns(bool) {\r\n        uint size;\r\n        assembly{\r\n            size:= extcodesize(_address)\r\n        }\r\n        if (size > 0){\r\n            // this is a smart contract\r\n            return true;\r\n        }\r\n        else return false;\r\n    }\r\n}",
  "sourcePath": "C:/Ethereum Projects/Crypto Gateway/src/contracts/GateWay.sol",
  "compiler": {
    "name": "solc",
    "version": "0.8.0+commit.c7dfd78e.Emscripten.clang"
  },
  "schemaVersion": "3.3.3",
  "updatedAt": "2021-01-19T12:22:52.013Z",
  "networkType": "ethereum",
  "devdoc": {
    "kind": "dev",
    "methods": {},
    "version": 1
  },
  "userdoc": {
    "kind": "user",
    "methods": {},
    "version": 1
  }
}